S012000049324320454550524F4D2E737265636C
S11300000C942A000C9434000C9434000C943400A6
S11300100C9434000C9434000C9434000C9434008C
S11300200C9434000C9434000C9434000C9434007C
S11300300C9434000C9434000C9434000C9434006C
S11300400C9434000C9434000C9434000C9434005C
S11300500C94340011241FBECFE5D8E0DEBFCDBF21
S11300600E9476020C948C020C940000442379F1D3
S1130070413009F05FC0813079F028F08230A9F076
S11300808330E1F008952AB381E090E001C0880F45
S11300906A95EAF7822B2CC027B381E090E001C077
S11300A0880F6A95EAF7822B2EC024B381E090E092
S11300B001C0880F6A95EAF7822B30C021B381E032
S11300C090E001C0880F6A95EAF7822B32C0813034
S11300D089F028F08230C9F0833011F108952AB3F1
S11300E081E090E001C0880F6A95EAF78095822349
S11300F08ABB089527B381E090E001C0880F6A9518
S1130100EAF78095822387BB089524B381E090E0C9
S113011001C0880F6A95EAF78095822384BB08950D
S113012021B381E090E001C0880F6A95EAF78095D9
S1130130822381BB0895442379F1413009F05FC0E3
S1130140813079F028F08230A9F08330E1F008950D
S11301502BB381E090E001C0880F6A95EAF7822B07
S11301602CC028B381E090E001C0880F6A95EAF7BB
S1130170822B2EC025B381E090E001C0880F6A95E0
S1130180EAF7822B30C022B381E090E001C0880FEF
S11301906A95EAF7822B32C0813089F028F08230E8
S11301A0C9F0833011F108952BB381E090E001C0D0
S11301B0880F6A95EAF7809582238BBB089528B34C
S11301C081E090E001C0880F6A95EAF78095822368
S11301D088BB089525B381E090E001C0880F6A953B
S11301E0EAF78095822385BB089522B381E090E0ED
S11301F001C0880F6A95EAF78095822382BB08952F
S11302001F93CF93DF93182FD62FC42F0E9438014A
S1130210812F0E9454018D2F0E946F018C2F0E9408
S11302206F01DF91CF911F910C948701CF93DF93DE
S1130230C82FD62F0E9438018C2F0E9454018D2F75
S11302400E946F010E9446018C2F0E9461010E944E
S11302507B01C82F0E9487018C2FDF91CF910895D5
S11302608CE080B90898099886B7846086BF0895A1
S113027086B7806286BF86B7806886BF06B607FEEB
S1130280FDCF81B1887F8830E1F3089586B780621D
S113029086BF86B7806886BF06B607FEFDCF81B1EC
S11302A0887F8031E1F30895880F83B986B7806829
S11302B086BF06B607FEFDCF81B1887F8831E1F3A2
S11302C00895880F816083B986B7806886BF06B6B3
S11302D007FEFDCF81B1887F8034E1F3089583B9AF
S11302E086B7806886BF06B607FEFDCF81B1887FDA
S11302F08832E1F3089586B7806886BF06B607FEA4
S1130300FDCF81B1887F8035E1F383B1089586B74D
S1130310806186BF86B7806886BF06B607FEFDCFBC
S11303200895CF93C82F40E061E081E00E949B00D4
S113033040E062E081E00E949B0040E063E081E0F5
S11303400E949B008BB39C2F907F8F70892B8BBB5B
S113035041E063E081E00E949B008FEC97E001970D
S1130360F1F700C0000040E063E081E00E949B00E0
S11303702BB330E1C39FC0011124922F9F70892BAE
S11303808BBB41E063E081E00E949B008FEC97E02F
S11303900197F1F700C0000040E063E081E00E94B3
S11303A09B008FE097E20197F1F700C00000CF9126
S11303B0089541E061E081E00E94360041E062E09E
S11303C081E00E94360041E063E081E00E94360053
S11303D041E064E080E00E94360041E065E080E0B6
S11303E00E94360041E066E080E00E94360041E071
S11303F067E080E00E9436002FEF80E792E0215012
S113040080409040E1F700C0000083E30E94910126
S113041082E30E94910188E20E9491018CE00E9493
S1130420910181E00E94910186E00E94910182E0A5
S11304300C949101CF93C82F41E061E081E00E94C8
S11304409B0040E062E081E00E949B0040E063E0AA
S113045081E00E949B008BB39C2F907F8F70892B2F
S11304608BBB41E063E081E00E949B008FEC97E04E
S11304700197F1F700C0000040E063E081E00E94D2
S11304809B002BB330E1C39FC0011124922F9F70B6
S1130490892B8BBB41E063E081E00E949B008FECE1
S11304A097E00197F1F700C0000040E063E081E0CD
S11304B00E949B008FE097E20197F1F700C00000D3
S11304C0CF910895CF93DF9300D0CDB7DEB790E8F6
S11304D0998390EC9A83FE01E80FF11D8181860FC8
S11304E00F900F90DF91CF910C9491010E943001F5
S11304F00E94D90141E461E080E50E94000161E0CD
S113050080E50E941601C82F60E080E00E9462022C
S10F05108C2F0E941A02FFCFF894FFCF3A
S9030000FC
